:100000000C942A000C9434000C9434000C943400AA
:100010000C9434000C9434000C9434000C94340090
:100020000C9434000C9434000C9434000C94340080
:100030000C9434000C9434000C9434000C94340070
:100040000C9434000C9434000C9434000C94340060
:100050000C94340011241FBECFE5D8E0DEBFCDBF25
:100060000E9453040C945C040C940000DF93CF9323
:10007000CDB7DEB728970FB6F894DEBF0FBECDBF61
:100080008A836B834C8319828B81883008F0F3C09C
:100090008C81813009F072C08A81282F30E0388746
:1000A0002F838F8198858130910549F12F81388583
:1000B000223031052CF48F819885009761F05BC068
:1000C0002F8138852230310571F18F8198858330F9
:1000D0009105E9F150C0AAE3B0E0EAE3F0E08081E5
:1000E000482F8B81282F30E081E090E0022E02C063
:1000F000880F991F0A94E2F7842B8C93BCC0A7E366
:10010000B0E0E7E3F0E08081482F8B81282F30E0DA
:1001100081E090E0022E02C0880F991F0A94E2F756
:10012000842B8C93A8C0A4E3B0E0E4E3F0E08081EA
:10013000482F8B81282F30E081E090E0022E02C012
:10014000880F991F0A94E2F7842B8C9394C0A1E343
:10015000B0E0E1E3F0E08081482F8B81282F30E090
:1001600081E090E0022E02C0880F991F0A94E2F706
:10017000842B8C9380C081E089837DC08C8188230F
:1001800009F077C08A81282F30E03E832D838D814E
:100190009E818130910559F12D813E8122303105BA
:1001A0002CF48D819E81009769F060C02D813E8185
:1001B0002230310589F18D819E818330910509F4CA
:1001C00040C054C0AAE3B0E0EAE3F0E08081482FE9
:1001D0008B81282F30E081E090E0022E02C0880F52
:1001E000991F0A94E2F7809584238C9344C0A7E377
:1001F000B0E0E7E3F0E08081482F8B81282F30E0EA
:1002000081E090E0022E02C0880F991F0A94E2F765
:10021000809584238C932FC0A4E3B0E0E4E3F0E066
:100220008081482F8B81282F30E081E090E0022EE2
:1002300002C0880F991F0A94E2F7809584238C935B
:100240001AC0A1E3B0E0E1E3F0E08081482F8B81A8
:10025000282F30E081E090E0022E02C0880F991F25
:100260000A94E2F7809584238C9305C081E089830A
:1002700002C081E08983898128960FB6F894DEBF99
:100280000FBECDBFCF91DF910895DF93CF93CDB750
:10029000DEB728970FB6F894DEBF0FBECDBF8A83B6
:1002A0006B834C8319828B81883008F0F3C08C817A
:1002B000813009F072C08A81282F30E038872F837F
:1002C0008F8198858130910549F12F8138852230C1
:1002D00031052CF48F819885009761F05BC02F81E8
:1002E00038852230310571F18F81988583309105F1
:1002F000E9F150C0ABE3B0E0EBE3F0E08081482FE0
:100300008B81282F30E081E090E0022E02C0880F20
:10031000991F0A94E2F7842B8C93BCC0A8E3B0E049
:10032000E8E3F0E08081482F8B81282F30E081E0E6
:1003300090E0022E02C0880F991F0A94E2F7842BE6
:100340008C93A8C0A5E3B0E0E5E3F0E08081482FFE
:100350008B81282F30E081E090E0022E02C0880FD0
:10036000991F0A94E2F7842B8C9394C0A2E3B0E027
:10037000E2E3F0E08081482F8B81282F30E081E09C
:1003800090E0022E02C0880F991F0A94E2F7842B96
:100390008C9380C081E089837DC08C81882309F0A3
:1003A00077C08A81282F30E03E832D838D819E8106
:1003B0008130910559F12D813E81223031052CF497
:1003C0008D819E81009769F060C02D813E81223031
:1003D000310589F18D819E818330910509F440C0FA
:1003E00054C0ABE3B0E0EBE3F0E08081482F8B81B9
:1003F000282F30E081E090E0022E02C0880F991F84
:100400000A94E2F7809584238C9344C0A8E3B0E07B
:10041000E8E3F0E08081482F8B81282F30E081E0F5
:1004200090E0022E02C0880F991F0A94E2F780958F
:1004300084238C932FC0A5E3B0E0E5E3F0E0808156
:10044000482F8B81282F30E081E090E0022E02C0FF
:10045000880F991F0A94E2F7809584238C931AC021
:10046000A2E3B0E0E2E3F0E08081482F8B81282F07
:1004700030E081E090E0022E02C0880F991F0A94BC
:10048000E2F7809584238C9305C081E0898302C0C4
:1004900081E08983898128960FB6F894DEBF0FBE6C
:1004A000CDBFCF91DF910895DF93CF9300D000D0DF
:1004B0000F92CDB7DEB78A836B8319828A81282F8A
:1004C00030E03D832C838C819D8181309105D1F07A
:1004D0002C813D81223031052CF48C819D81009747
:1004E00061F01FC02C813D812230310581F08C816B
:1004F0009D818330910581F014C0EAE3F0E08B81A7
:10050000808311C0E7E3F0E08B8180830CC0E4E3DB
:10051000F0E08B81808307C0E1E3F0E08B81808392
:1005200002C081E0898389810F900F900F900F9016
:100530000F90CF91DF910895DF93CF9300D000D03B
:100540000F92CDB7DEB78A836B8319828A81282FF9
:1005500030E03D832C838C819D8181309105D1F0E9
:100560002C813D81223031052CF48C819D810097B6
:1005700061F01FC02C813D812230310581F08C81DA
:100580009D818330910581F014C0EBE3F0E08B8115
:10059000808311C0E8E3F0E08B8180830CC0E5E349
:1005A000F0E08B81808307C0E2E3F0E08B81808301
:1005B00002C081E0898389810F900F900F900F9086
:1005C0000F90CF91DF910895DF93CF93CDB7DEB732
:1005D00027970FB6F894DEBF0FBECDBF8A836B831B
:1005E0005D834C8319828C819D81009709F478C0CA
:1005F0008B81883008F074C08A81282F30E03F83D7
:100600002E834E815F814130510559F18E819F814A
:100610008230910534F42E813F812115310569F036
:100620005CC04E815F814230510579F18E819F819E
:100630008330910509F43DC050C0E9E3F0E08081CA
:10064000282F30E08B81882F90E0A90102C05595BA
:1006500047958A95E2F7CA018170EC81FD8180831C
:1006600041C0E6E3F0E08081282F30E08B81882FC5
:1006700090E0A90102C0559547958A95E2F7CA0115
:100680008170EC81FD8180832DC0E3E3F0E0808107
:10069000282F30E08B81882F90E0A90102C055956A
:1006A00047958A95E2F7CA018170EC81FD818083CC
:1006B00019C0E0E3F0E08081282F30E08B81882FA3
:1006C00090E0A90102C0559547958A95E2F7CA01C5
:1006D0008170EC81FD81808305C081E0898302C047
:1006E00081E08983898127960FB6F894DEBF0FBE1B
:1006F000CDBFCF91DF910895DF93CF9300D000D08D
:100700000F92CDB7DEB78A836B8319828B818830D5
:1007100008F0C0C08A81282F30E03D832C838C8173
:100720009D818130910509F43EC02C813D812230AC
:1007300031052CF48C819D81009771F0A9C02C812A
:100740003D812230310509F455C08C819D81833073
:10075000910509F476C09CC0AAE3B0E0EAE3F0E0BA
:100760008081482F8B81282F30E081E090E002C00B
:10077000880F991F2A95E2F7809584238C93ABE329
:10078000B0E0EBE3F0E08081482F8B81282F30E050
:1007900081E090E0022E02C0880F991F0A94E2F7D0
:1007A000842B8C9377C0A7E3B0E0E7E3F0E080818F
:1007B000482F8B81282F30E081E090E002C0880F25
:1007C000991F2A95E2F7809584238C93A8E3B0E0E3
:1007D000E8E3F0E08081482F8B81282F30E081E032
:1007E00090E0022E02C0880F991F0A94E2F7842B32
:1007F0008C9350C0A4E3B0E0E4E3F0E08081482FA4
:100800008B81282F30E081E090E002C0880F991F93
:100810002A95E2F7809584238C93A5E3B0E0E5E385
:10082000F0E08081482F8B81282F30E081E090E03C
:10083000022E02C0880F991F0A94E2F7842B8C9332
:1008400029C0A1E3B0E0E1E3F0E08081482F8B8193
:10085000282F30E081E090E002C0880F991F2A9590
:10086000E2F7809584238C93A2E3B0E0E2E3F0E02A
:100870008081482F8B81282F30E081E090E0022E8C
:1008800002C0880F991F0A94E2F7842B8C9302C050
:1008900081E0898389810F900F900F900F900F90C6
:1008A000CF91DF910895DF93CF93CDB7DEB780E08E
:0C08B00090E0CF91DF910895F894FFCF05
:00000001FF
