:100000000C942A000C9434000C9434000C943400AA
:100010000C9434000C9434000C9434000C94340090
:100020000C9434000C9434000C9434000C94340080
:100030000C9434000C9434000C9434000C94340070
:100040000C9434000C9434000C9434000C94340060
:100050000C94340011241FBECFE5D8E0DEBFCDBF25
:100060000E94EB030C9412040C940000DF93CF93D6
:10007000CDB7DEB728970FB6F894DEBF0FBECDBF61
:100080008A836B834C8319828B81883008F0F3C09C
:100090008C81813009F072C08A81282F30E0388746
:1000A0002F838F8198858130910549F12F81388583
:1000B000223031052CF48F819885009761F05BC068
:1000C0002F8138852230310571F18F8198858330F9
:1000D0009105E9F150C0AAE3B0E0EAE3F0E08081E5
:1000E000482F8B81282F30E081E090E0022E02C063
:1000F000880F991F0A94E2F7842B8C93BCC0A7E366
:10010000B0E0E7E3F0E08081482F8B81282F30E0DA
:1001100081E090E0022E02C0880F991F0A94E2F756
:10012000842B8C93A8C0A4E3B0E0E4E3F0E08081EA
:10013000482F8B81282F30E081E090E0022E02C012
:10014000880F991F0A94E2F7842B8C9394C0A1E343
:10015000B0E0E1E3F0E08081482F8B81282F30E090
:1001600081E090E0022E02C0880F991F0A94E2F706
:10017000842B8C9380C081E089837DC08C8188230F
:1001800009F077C08A81282F30E03E832D838D814E
:100190009E818130910559F12D813E8122303105BA
:1001A0002CF48D819E81009769F060C02D813E8185
:1001B0002230310589F18D819E818330910509F4CA
:1001C00040C054C0AAE3B0E0EAE3F0E08081482FE9
:1001D0008B81282F30E081E090E0022E02C0880F52
:1001E000991F0A94E2F7809584238C9344C0A7E377
:1001F000B0E0E7E3F0E08081482F8B81282F30E0EA
:1002000081E090E0022E02C0880F991F0A94E2F765
:10021000809584238C932FC0A4E3B0E0E4E3F0E066
:100220008081482F8B81282F30E081E090E0022EE2
:1002300002C0880F991F0A94E2F7809584238C935B
:100240001AC0A1E3B0E0E1E3F0E08081482F8B81A8
:10025000282F30E081E090E0022E02C0880F991F25
:100260000A94E2F7809584238C9305C081E089830A
:1002700002C081E08983898128960FB6F894DEBF99
:100280000FBECDBFCF91DF910895DF93CF93CDB750
:10029000DEB728970FB6F894DEBF0FBECDBF8A83B6
:1002A0006B834C8319828B81883008F0F3C08C817A
:1002B000813009F072C08A81282F30E038872F837F
:1002C0008F8198858130910549F12F8138852230C1
:1002D00031052CF48F819885009761F05BC02F81E8
:1002E00038852230310571F18F81988583309105F1
:1002F000E9F150C0ABE3B0E0EBE3F0E08081482FE0
:100300008B81282F30E081E090E0022E02C0880F20
:10031000991F0A94E2F7842B8C93BCC0A8E3B0E049
:10032000E8E3F0E08081482F8B81282F30E081E0E6
:1003300090E0022E02C0880F991F0A94E2F7842BE6
:100340008C93A8C0A5E3B0E0E5E3F0E08081482FFE
:100350008B81282F30E081E090E0022E02C0880FD0
:10036000991F0A94E2F7842B8C9394C0A2E3B0E027
:10037000E2E3F0E08081482F8B81282F30E081E09C
:1003800090E0022E02C0880F991F0A94E2F7842B96
:100390008C9380C081E089837DC08C81882309F0A3
:1003A00077C08A81282F30E03E832D838D819E8106
:1003B0008130910559F12D813E81223031052CF497
:1003C0008D819E81009769F060C02D813E81223031
:1003D000310589F18D819E818330910509F440C0FA
:1003E00054C0ABE3B0E0EBE3F0E08081482F8B81B9
:1003F000282F30E081E090E0022E02C0880F991F84
:100400000A94E2F7809584238C9344C0A8E3B0E07B
:10041000E8E3F0E08081482F8B81282F30E081E0F5
:1004200090E0022E02C0880F991F0A94E2F780958F
:1004300084238C932FC0A5E3B0E0E5E3F0E0808156
:10044000482F8B81282F30E081E090E0022E02C0FF
:10045000880F991F0A94E2F7809584238C931AC021
:10046000A2E3B0E0E2E3F0E08081482F8B81282F07
:1004700030E081E090E0022E02C0880F991F0A94BC
:10048000E2F7809584238C9305C081E0898302C0C4
:1004900081E08983898128960FB6F894DEBF0FBE6C
:1004A000CDBFCF91DF910895DF93CF93CDB7DEB766
:1004B00027970FB6F894DEBF0FBECDBF8A836B833C
:1004C00019828B818130B1F58A81282F30E03F83FA
:1004D0002E838E819F8181309105D1F02E813F81C5
:1004E000223031052CF48E819F81009761F01FC06E
:1004F0002E813F812230310581F08E819F818330B2
:10050000910581F014C0EAE3F0E08FEF808349C0E9
:10051000E7E3F0E08FEF808344C0E4E3F0E08FEFA7
:1005200080833FC0E1E3F0E08FEF80833AC081E059
:10053000898337C08B81882391F58A81282F30E009
:100540003D832C838C819D8181309105C9F02C8164
:100550003D81223031052CF48C819D81009761F022
:100560001BC02C813D812230310571F08C819D8131
:100570008330910569F010C0EAE3F0E0108211C009
:10058000E7E3F0E010820DC0E4E3F0E0108209C080
:10059000E1E3F0E0108205C081E0898302C081E0E0
:1005A0008983898127960FB6F894DEBF0FBECDBF31
:1005B000CF91DF910895DF93CF93CDB7DEB7279723
:1005C0000FB6F894DEBF0FBECDBF8A836B8319824E
:1005D0008B818130B1F58A81282F30E03F832E83D3
:1005E0008E819F8181309105D1F02E813F81223013
:1005F00031052CF48E819F81009761F01FC02E8100
:100600003F812230310581F08E819F8183309105B9
:1006100081F014C0EBE3F0E08FEF808349C0E8E3A2
:10062000F0E08FEF808344C0E5E3F0E08FEF80835C
:100630003FC0E2E3F0E08FEF80833AC081E089833E
:1006400037C08B81882391F58A81282F30E03D8344
:100650002C838C819D8181309105C9F02C813D8155
:10066000223031052CF48C819D81009761F01BC0F4
:100670002C813D812230310571F08C819D81833048
:10068000910569F010C0EBE3F0E0108211C0E8E3DF
:10069000F0E010820DC0E5E3F0E0108209C0E2E373
:1006A000F0E0108205C081E0898302C081E0898387
:1006B000898127960FB6F894DEBF0FBECDBFCF91CC
:1006C000DF910895DF93CF93CDB7DEB727970FB6AD
:1006D000F894DEBF0FBECDBF8A836B835D834C83EE
:1006E00019828A81282F30E03F832E834E815F81DB
:1006F0004130510559F18E819F818230910534F44A
:100700002E813F812115310569F05BC04E815F81EB
:100710004230510579F18E819F818330910509F432
:100720003DC04FC0E9E3F0E08081282F30E08B81AD
:10073000882F90E0A90102C0559547958A95E2F768
:10074000CA018170EC81FD8180833BC0E6E3F0E06B
:100750008081282F30E08B81882F90E0A90102C092
:10076000559547958A95E2F7CA018170EC81FD8124
:10077000808327C0E3E3F0E08081282F30E08B8185
:10078000882F90E0A90102C0559547958A95E2F718
:10079000CA018170EC81FD81808313C0E0E3F0E049
:1007A0008081282F30E08B81882F90E0A90102C042
:1007B000559547958A95E2F7CA018170EC81FD81D4
:1007C0008083898127960FB6F894DEBF0FBECDBF18
:1007D000CF91DF910895DF93CF93CDB7DEB783E05C
:1007E00063E041E00E94360082E062E041E00E9466
:1007F000360082E067E041E00E94360083E063E07B
:1008000041E00E94450182E062E041E00E94450132
:1008100082E067E041E00E94450180E090E0CF91F6
:08082000DF910895F894FFCF69
:00000001FF
